{
  "contractName": "Authorizer",
  "address": "0x892E47dB47526f7d4c5F3b72AfbC5d2dC8193C00",
  "abi": [
    {
      "anonymous": false,
      "inputs": [
        {
          "indexed": true,
          "internalType": "bytes32",
          "name": "hash",
          "type": "bytes32"
        },
        {
          "indexed": false,
          "internalType": "enum Authorizer.AuthorizationState",
          "name": "",
          "type": "uint8"
        }
      ],
      "name": "AuthorizationUpdateEvent",
      "type": "event"
    },
    {
      "inputs": [
        {
          "internalType": "bytes32",
          "name": "hash",
          "type": "bytes32"
        }
      ],
      "name": "requireAuthorization",
      "outputs": [
        {
          "internalType": "bool",
          "name": "success",
          "type": "bool"
        }
      ],
      "stateMutability": "view",
      "type": "function"
    },
    {
      "inputs": [
        {
          "internalType": "bytes32",
          "name": "hash",
          "type": "bytes32"
        }
      ],
      "name": "getAuthorizationStatus",
      "outputs": [
        {
          "internalType": "enum Authorizer.AuthorizationState",
          "name": "",
          "type": "uint8"
        }
      ],
      "stateMutability": "view",
      "type": "function"
    },
    {
      "inputs": [
        {
          "internalType": "bytes32",
          "name": "hash",
          "type": "bytes32"
        },
        {
          "internalType": "enum Authorizer.AuthorizationState",
          "name": "authStatus",
          "type": "uint8"
        }
      ],
      "name": "updateAuthorizationStatus",
      "outputs": [
        {
          "internalType": "bool",
          "name": "success",
          "type": "bool"
        }
      ],
      "stateMutability": "nonpayable",
      "type": "function"
    }
  ],
  "bytecode": "0x608060405234801561001057600080fd5b506104a7806100206000396000f3fe608060405234801561001057600080fd5b50600436106100415760003560e01c8063042dbe5114610046578063578d9a2414610076578063fdf49f4e146100a6575b600080fd5b610060600480360381019061005b91906102bf565b6100d6565b60405161006d919061031a565b60405180910390f35b610090600480360381019061008b9190610335565b6101e4565b60405161009d91906103d9565b60405180910390f35b6100c060048036038101906100bb9190610335565b61020e565b6040516100cd919061031a565b60405180910390f35b60008060009054906101000a900473ffffffffffffffffffffffffffffffffffffffff1673ffffffffffffffffffffffffffffffffffffffff163373ffffffffffffffffffffffffffffffffffffffff1614610167576040517f08c379a000000000000000000000000000000000000000000000000000000000815260040161015e90610451565b60405180910390fd5b816001600085815260200190815260200160002060006101000a81548160ff0219169083600281111561019d5761019c610362565b5b0217905550827f22a308089f5daa3e9e17794e77fbe3f2b4a5941c3add71dc55bdc1a3c5012499836040516101d291906103d9565b60405180910390a26001905092915050565b60006001600083815260200190815260200160002060009054906101000a900460ff169050919050565b60006001600281111561022457610223610362565b5b6001600084815260200190815260200160002060009054906101000a900460ff16600281111561025757610256610362565b5b149050919050565b600080fd5b6000819050919050565b61027781610264565b811461028257600080fd5b50565b6000813590506102948161026e565b92915050565b600381106102a757600080fd5b50565b6000813590506102b98161029a565b92915050565b600080604083850312156102d6576102d561025f565b5b60006102e485828601610285565b92505060206102f5858286016102aa565b9150509250929050565b60008115159050919050565b610314816102ff565b82525050565b600060208201905061032f600083018461030b565b92915050565b60006020828403121561034b5761034a61025f565b5b600061035984828501610285565b91505092915050565b7f4e487b7100000000000000000000000000000000000000000000000000000000600052602160045260246000fd5b600381106103a2576103a1610362565b5b50565b60008190506103b382610391565b919050565b60006103c3826103a5565b9050919050565b6103d3816103b8565b82525050565b60006020820190506103ee60008301846103ca565b92915050565b600082825260208201905092915050565b7f43616c6c6572206d757374206265206f776e6572000000000000000000000000600082015250565b600061043b6014836103f4565b915061044682610405565b602082019050919050565b6000602082019050818103600083015261046a8161042e565b905091905056fea2646970667358221220f84aa5d653479e334c65a23cd106cebdf2714c4e618f922dd824c65842d1aa8f64736f6c634300080d0033",
  "immutableReferences": {},
  "source": "// SPDX-License-Identifier: MIT\npragma solidity ^0.8.3;\n\ncontract Authorizer {\n    /* ========== STATE VARIABLES ========== */\n    address private owner;\n\n    enum AuthorizationState {\n        INACTIVE,\n        ACTIVE,\n        BLOCKED\n    }\n\n    mapping(bytes32 => AuthorizationState) private authorizations;\n\n    // Permits modifications only by the owner of the specified node.\n    modifier onlyOwner() {\n        require(msg.sender == owner, \"Caller must be owner\");\n        _;\n    }\n\n    /* ========== EVENTS ========== */\n\n    event AuthorizationUpdateEvent(bytes32 indexed hash, AuthorizationState);\n\n    /* ========== MUTATIVE FUNCTIONS ========== */\n\n    function requireAuthorization(bytes32 hash)\n        public\n        view\n        returns (bool success)\n    {\n        return authorizations[hash] == AuthorizationState.ACTIVE;\n    }\n\n    function getAuthorizationStatus(bytes32 hash)\n        public\n        view\n        returns (AuthorizationState)\n    {\n        return authorizations[hash];\n    }\n\n    function updateAuthorizationStatus(\n        bytes32 hash,\n        AuthorizationState authStatus\n    ) public onlyOwner returns (bool success) {\n        authorizations[hash] = authStatus;\n\n        emit AuthorizationUpdateEvent(hash, authStatus);\n        return true;\n    }\n\n    /* ========== INTERNAL FUNCTIONS ========== */\n}\n",
  "sourcePath": "/Users/joshuablew/Work/nexus/contracts/Authorizer.sol",
  "compiler": {
    "name": "solc",
    "version": "0.8.13+commit.abaa5c0e.Emscripten.clang"
  },
  "schemaVersion": "3.4.9",
  "updatedAt": "2022-12-23T00:13:25.314Z",
  "devdoc": {
    "kind": "dev",
    "methods": {},
    "version": 1
  },
  "userdoc": {
    "kind": "user",
    "methods": {},
    "version": 1
  }
}