{
  "contractName": "Nexus",
  "address": "0x70c17347999f62D3256e8412749F52FB0aEE3a41",
  "abi": [
    {
      "inputs": [
        {
          "internalType": "contract Authorizer",
          "name": "_authorizer",
          "type": "address"
        }
      ],
      "stateMutability": "nonpayable",
      "type": "constructor"
    },
    {
      "anonymous": false,
      "inputs": [
        {
          "indexed": true,
          "internalType": "bytes32",
          "name": "hash",
          "type": "bytes32"
        }
      ],
      "name": "ProfileCreateEvent",
      "type": "event"
    },
    {
      "anonymous": false,
      "inputs": [
        {
          "indexed": true,
          "internalType": "bytes32",
          "name": "hash",
          "type": "bytes32"
        }
      ],
      "name": "ProfileDeleteEvent",
      "type": "event"
    },
    {
      "anonymous": false,
      "inputs": [
        {
          "indexed": true,
          "internalType": "bytes32",
          "name": "hash",
          "type": "bytes32"
        },
        {
          "indexed": false,
          "internalType": "address",
          "name": "_address",
          "type": "address"
        }
      ],
      "name": "WalletCreateEvent",
      "type": "event"
    },
    {
      "anonymous": false,
      "inputs": [
        {
          "indexed": true,
          "internalType": "bytes32",
          "name": "hash",
          "type": "bytes32"
        },
        {
          "indexed": false,
          "internalType": "address",
          "name": "_address",
          "type": "address"
        }
      ],
      "name": "WalletDeleteEvent",
      "type": "event"
    },
    {
      "anonymous": false,
      "inputs": [
        {
          "indexed": true,
          "internalType": "bytes32",
          "name": "hash",
          "type": "bytes32"
        },
        {
          "indexed": false,
          "internalType": "address",
          "name": "_address",
          "type": "address"
        }
      ],
      "name": "WalletUpdateEvent",
      "type": "event"
    },
    {
      "inputs": [],
      "name": "authorizer",
      "outputs": [
        {
          "internalType": "contract Authorizer",
          "name": "",
          "type": "address"
        }
      ],
      "stateMutability": "view",
      "type": "function"
    },
    {
      "inputs": [
        {
          "internalType": "bytes32",
          "name": "hash",
          "type": "bytes32"
        }
      ],
      "name": "createProfile",
      "outputs": [],
      "stateMutability": "nonpayable",
      "type": "function"
    },
    {
      "inputs": [
        {
          "internalType": "bytes32",
          "name": "hash",
          "type": "bytes32"
        },
        {
          "internalType": "address",
          "name": "_address",
          "type": "address"
        },
        {
          "internalType": "string",
          "name": "name",
          "type": "string"
        },
        {
          "internalType": "string",
          "name": "description",
          "type": "string"
        },
        {
          "internalType": "string",
          "name": "provider",
          "type": "string"
        },
        {
          "internalType": "string",
          "name": "chain",
          "type": "string"
        }
      ],
      "name": "createProfileWithWallet",
      "outputs": [],
      "stateMutability": "nonpayable",
      "type": "function"
    },
    {
      "inputs": [
        {
          "internalType": "bytes32",
          "name": "hash",
          "type": "bytes32"
        }
      ],
      "name": "deleteProfile",
      "outputs": [
        {
          "internalType": "bool",
          "name": "success",
          "type": "bool"
        }
      ],
      "stateMutability": "nonpayable",
      "type": "function"
    },
    {
      "inputs": [
        {
          "internalType": "bytes32",
          "name": "hash",
          "type": "bytes32"
        },
        {
          "internalType": "address",
          "name": "_address",
          "type": "address"
        },
        {
          "internalType": "string",
          "name": "name",
          "type": "string"
        },
        {
          "internalType": "string",
          "name": "description",
          "type": "string"
        },
        {
          "internalType": "string",
          "name": "provider",
          "type": "string"
        },
        {
          "internalType": "string",
          "name": "chain",
          "type": "string"
        }
      ],
      "name": "insertWallet",
      "outputs": [],
      "stateMutability": "nonpayable",
      "type": "function"
    },
    {
      "inputs": [
        {
          "internalType": "bytes32",
          "name": "hash",
          "type": "bytes32"
        }
      ],
      "name": "getWallets",
      "outputs": [
        {
          "components": [
            {
              "internalType": "address",
              "name": "_address",
              "type": "address"
            },
            {
              "internalType": "string",
              "name": "name",
              "type": "string"
            },
            {
              "internalType": "string",
              "name": "description",
              "type": "string"
            },
            {
              "internalType": "string",
              "name": "provider",
              "type": "string"
            },
            {
              "internalType": "string",
              "name": "chain",
              "type": "string"
            }
          ],
          "internalType": "struct Nexus.Wallet[]",
          "name": "_wallets",
          "type": "tuple[]"
        }
      ],
      "stateMutability": "view",
      "type": "function"
    },
    {
      "inputs": [
        {
          "internalType": "bytes32",
          "name": "hash",
          "type": "bytes32"
        },
        {
          "internalType": "uint256",
          "name": "index",
          "type": "uint256"
        },
        {
          "internalType": "string",
          "name": "name",
          "type": "string"
        },
        {
          "internalType": "string",
          "name": "description",
          "type": "string"
        }
      ],
      "name": "updateWallet",
      "outputs": [
        {
          "components": [
            {
              "internalType": "address",
              "name": "_address",
              "type": "address"
            },
            {
              "internalType": "string",
              "name": "name",
              "type": "string"
            },
            {
              "internalType": "string",
              "name": "description",
              "type": "string"
            },
            {
              "internalType": "string",
              "name": "provider",
              "type": "string"
            },
            {
              "internalType": "string",
              "name": "chain",
              "type": "string"
            }
          ],
          "internalType": "struct Nexus.Wallet",
          "name": "wallet",
          "type": "tuple"
        }
      ],
      "stateMutability": "nonpayable",
      "type": "function"
    },
    {
      "inputs": [
        {
          "internalType": "bytes32",
          "name": "hash",
          "type": "bytes32"
        },
        {
          "internalType": "uint256",
          "name": "index",
          "type": "uint256"
        }
      ],
      "name": "deleteWallet",
      "outputs": [
        {
          "internalType": "bool",
          "name": "success",
          "type": "bool"
        }
      ],
      "stateMutability": "nonpayable",
      "type": "function"
    }
  ],
  "bytecode": "0x60806040523480156200001157600080fd5b50604051620024a3380380620024a38339818101604052810190620000379190620000fc565b806000806101000a81548173ffffffffffffffffffffffffffffffffffffffff021916908373ffffffffffffffffffffffffffffffffffffffff160217905550506200012e565b600080fd5b600073ffffffffffffffffffffffffffffffffffffffff82169050919050565b6000620000b08262000083565b9050919050565b6000620000c482620000a3565b9050919050565b620000d681620000b7565b8114620000e257600080fd5b50565b600081519050620000f681620000cb565b92915050565b6000602082840312156200011557620001146200007e565b5b60006200012584828501620000e5565b91505092915050565b612365806200013e6000396000f3fe608060405234801561001057600080fd5b50600436106100885760003560e01c8063d09edf311161005b578063d09edf3114610139578063d4800b4014610157578063d9eaa45614610173578063ecd42472146101a357610088565b80636c2ef4bd1461008d5780637a9eb54d146100bd578063c5e920a8146100ed578063ca6e336214610109575b600080fd5b6100a760048036038101906100a29190611944565b6101bf565b6040516100b4919061199f565b60405180910390f35b6100d760048036038101906100d291906119ba565b610497565b6040516100e4919061199f565b60405180910390f35b61010760048036038101906101029190611b8b565b6106b1565b005b610123600480360381019061011e91906119ba565b6109c5565b6040516101309190611e6c565b60405180910390f35b610141610dc1565b60405161014e9190611eed565b60405180910390f35b610171600480360381019061016c91906119ba565b610de5565b005b61018d60048036038101906101889190611f08565b610f59565b60405161019a9190612032565b60405180910390f35b6101bd60048036038101906101b89190611b8b565b61150c565b005b60008260006001600083815260200190815260200160002060000160009054906101000a900473ffffffffffffffffffffffffffffffffffffffff1690503373ffffffffffffffffffffffffffffffffffffffff168173ffffffffffffffffffffffffffffffffffffffff161461026b576040517f08c379a0000000000000000000000000000000000000000000000000000000008152600401610262906120b1565b60405180910390fd5b8460008060009054906101000a900473ffffffffffffffffffffffffffffffffffffffff1673ffffffffffffffffffffffffffffffffffffffff1663fdf49f4e836040518263ffffffff1660e01b81526004016102c891906120e0565b602060405180830381865afa1580156102e5573d6000803e3d6000fd5b505050506040513d601f19601f820116820180604052508101906103099190612127565b90506001151581151514610352576040517f08c379a0000000000000000000000000000000000000000000000000000000008152600401610349906121a0565b60405180910390fd5b600060016000898152602001908152602001600020600101878154811061037c5761037b6121c0565b5b906000526020600020906005020160000160009054906101000a900473ffffffffffffffffffffffffffffffffffffffff1690506001600089815260200190815260200160002060010187815481106103d8576103d76121c0565b5b9060005260206000209060050201600080820160006101000a81549073ffffffffffffffffffffffffffffffffffffffff021916905560018201600061041e91906116fa565b60028201600061042e91906116fa565b60038201600061043e91906116fa565b60048201600061044e91906116fa565b5050877f48fc346cb87898b336397217068035c2c654177c9dba18fde1320aea91a983758260405161048091906121fe565b60405180910390a260019550505050505092915050565b60008160006001600083815260200190815260200160002060000160009054906101000a900473ffffffffffffffffffffffffffffffffffffffff1690503373ffffffffffffffffffffffffffffffffffffffff168173ffffffffffffffffffffffffffffffffffffffff1614610543576040517f08c379a000000000000000000000000000000000000000000000000000000000815260040161053a906120b1565b60405180910390fd5b8360008060009054906101000a900473ffffffffffffffffffffffffffffffffffffffff1673ffffffffffffffffffffffffffffffffffffffff1663fdf49f4e836040518263ffffffff1660e01b81526004016105a091906120e0565b602060405180830381865afa1580156105bd573d6000803e3d6000fd5b505050506040513d601f19601f820116820180604052508101906105e19190612127565b9050600115158115151461062a576040517f08c379a0000000000000000000000000000000000000000000000000000000008152600401610621906121a0565b60405180910390fd5b60016000878152602001908152602001600020600080820160006101000a81549073ffffffffffffffffffffffffffffffffffffffff0219169055600182016000610675919061173a565b5050857f4f634fd87dead441d31e6039a2494ac82071e9c6b343316bcc490d4d2945c87c60405160405180910390a26001945050505050919050565b8560006001600083815260200190815260200160002060000160009054906101000a900473ffffffffffffffffffffffffffffffffffffffff1690503373ffffffffffffffffffffffffffffffffffffffff168173ffffffffffffffffffffffffffffffffffffffff161461075b576040517f08c379a0000000000000000000000000000000000000000000000000000000008152600401610752906120b1565b60405180910390fd5b8760008060009054906101000a900473ffffffffffffffffffffffffffffffffffffffff1673ffffffffffffffffffffffffffffffffffffffff1663fdf49f4e836040518263ffffffff1660e01b81526004016107b891906120e0565b602060405180830381865afa1580156107d5573d6000803e3d6000fd5b505050506040513d601f19601f820116820180604052508101906107f99190612127565b90506001151581151514610842576040517f08c379a0000000000000000000000000000000000000000000000000000000008152600401610839906121a0565b60405180910390fd5b60006040518060a001604052808b73ffffffffffffffffffffffffffffffffffffffff1681526020018a8152602001898152602001888152602001878152509050600160008c815260200190815260200160002060010181908060018154018082558091505060019003906000526020600020906005020160009091909190915060008201518160000160006101000a81548173ffffffffffffffffffffffffffffffffffffffff021916908373ffffffffffffffffffffffffffffffffffffffff160217905550602082015181600101908051906020019061092692919061175e565b50604082015181600201908051906020019061094392919061175e565b50606082015181600301908051906020019061096092919061175e565b50608082015181600401908051906020019061097d92919061175e565b5050508a7f728ccade108722a1e66d07d052def42caf029ab7cb2cd7a7f888bb3229f8e9d18b6040516109b091906121fe565b60405180910390a25050505050505050505050565b60608160008060009054906101000a900473ffffffffffffffffffffffffffffffffffffffff1673ffffffffffffffffffffffffffffffffffffffff1663fdf49f4e836040518263ffffffff1660e01b8152600401610a2491906120e0565b602060405180830381865afa158015610a41573d6000803e3d6000fd5b505050506040513d601f19601f82011682018060405250810190610a659190612127565b90506001151581151514610aae576040517f08c379a0000000000000000000000000000000000000000000000000000000008152600401610aa5906121a0565b60405180910390fd5b60016000858152602001908152602001600020600101805480602002602001604051908101604052809291908181526020016000905b82821015610db457838290600052602060002090600502016040518060a00160405290816000820160009054906101000a900473ffffffffffffffffffffffffffffffffffffffff1673ffffffffffffffffffffffffffffffffffffffff1673ffffffffffffffffffffffffffffffffffffffff168152602001600182018054610b6d90612248565b80601f0160208091040260200160405190810160405280929190818152602001828054610b9990612248565b8015610be65780601f10610bbb57610100808354040283529160200191610be6565b820191906000526020600020905b815481529060010190602001808311610bc957829003601f168201915b50505050508152602001600282018054610bff90612248565b80601f0160208091040260200160405190810160405280929190818152602001828054610c2b90612248565b8015610c785780601f10610c4d57610100808354040283529160200191610c78565b820191906000526020600020905b815481529060010190602001808311610c5b57829003601f168201915b50505050508152602001600382018054610c9190612248565b80601f0160208091040260200160405190810160405280929190818152602001828054610cbd90612248565b8015610d0a5780601f10610cdf57610100808354040283529160200191610d0a565b820191906000526020600020905b815481529060010190602001808311610ced57829003601f168201915b50505050508152602001600482018054610d2390612248565b80601f0160208091040260200160405190810160405280929190818152602001828054610d4f90612248565b8015610d9c5780601f10610d7157610100808354040283529160200191610d9c565b820191906000526020600020905b815481529060010190602001808311610d7f57829003601f168201915b50505050508152505081526020019060010190610ae4565b5050505092505050919050565b60008054906101000a900473ffffffffffffffffffffffffffffffffffffffff1681565b8060008060009054906101000a900473ffffffffffffffffffffffffffffffffffffffff1673ffffffffffffffffffffffffffffffffffffffff1663fdf49f4e836040518263ffffffff1660e01b8152600401610e4291906120e0565b602060405180830381865afa158015610e5f573d6000803e3d6000fd5b505050506040513d601f19601f82011682018060405250810190610e839190612127565b90506001151581151514610ecc576040517f08c379a0000000000000000000000000000000000000000000000000000000008152600401610ec3906121a0565b60405180910390fd5b6000600160008581526020019081526020016000209050338160000160006101000a81548173ffffffffffffffffffffffffffffffffffffffff021916908373ffffffffffffffffffffffffffffffffffffffff160217905550837f49dc6543f46a459a35e4ce36bb4994a0eaecc8c3de1aaf466e83c52fd385c45960405160405180910390a250505050565b610f616117e4565b8460006001600083815260200190815260200160002060000160009054906101000a900473ffffffffffffffffffffffffffffffffffffffff1690503373ffffffffffffffffffffffffffffffffffffffff168173ffffffffffffffffffffffffffffffffffffffff161461100b576040517f08c379a0000000000000000000000000000000000000000000000000000000008152600401611002906120b1565b60405180910390fd5b8660008060009054906101000a900473ffffffffffffffffffffffffffffffffffffffff1673ffffffffffffffffffffffffffffffffffffffff1663fdf49f4e836040518263ffffffff1660e01b815260040161106891906120e0565b602060405180830381865afa158015611085573d6000803e3d6000fd5b505050506040513d601f19601f820116820180604052508101906110a99190612127565b905060011515811515146110f2576040517f08c379a00000000000000000000000000000000000000000000000000000000081526004016110e9906121a0565b60405180910390fd5b86600160008b8152602001908152602001600020600101898154811061111b5761111a6121c0565b5b9060005260206000209060050201600101908051906020019061113f92919061175e565b5085600160008b81526020019081526020016000206001018981548110611169576111686121c0565b5b9060005260206000209060050201600201908051906020019061118d92919061175e565b50887f32b821dde739671a8c4b9ebbd09a7bfbaac8e3914d1492e2aecaa1509fd5d0a0600160008c81526020019081526020016000206001018a815481106111d8576111d76121c0565b5b906000526020600020906005020160000160009054906101000a900473ffffffffffffffffffffffffffffffffffffffff1660405161121791906121fe565b60405180910390a2600160008a81526020019081526020016000206001018881548110611247576112466121c0565b5b90600052602060002090600502016040518060a00160405290816000820160009054906101000a900473ffffffffffffffffffffffffffffffffffffffff1673ffffffffffffffffffffffffffffffffffffffff1673ffffffffffffffffffffffffffffffffffffffff1681526020016001820180546112c690612248565b80601f01602080910402602001604051908101604052809291908181526020018280546112f290612248565b801561133f5780601f106113145761010080835404028352916020019161133f565b820191906000526020600020905b81548152906001019060200180831161132257829003601f168201915b5050505050815260200160028201805461135890612248565b80601f016020809104026020016040519081016040528092919081815260200182805461138490612248565b80156113d15780601f106113a6576101008083540402835291602001916113d1565b820191906000526020600020905b8154815290600101906020018083116113b457829003601f168201915b505050505081526020016003820180546113ea90612248565b80601f016020809104026020016040519081016040528092919081815260200182805461141690612248565b80156114635780601f1061143857610100808354040283529160200191611463565b820191906000526020600020905b81548152906001019060200180831161144657829003601f168201915b5050505050815260200160048201805461147c90612248565b80601f01602080910402602001604051908101604052809291908181526020018280546114a890612248565b80156114f55780601f106114ca576101008083540402835291602001916114f5565b820191906000526020600020905b8154815290600101906020018083116114d857829003601f168201915b505050505081525050945050505050949350505050565b8560008060009054906101000a900473ffffffffffffffffffffffffffffffffffffffff1673ffffffffffffffffffffffffffffffffffffffff1663fdf49f4e836040518263ffffffff1660e01b815260040161156991906120e0565b602060405180830381865afa158015611586573d6000803e3d6000fd5b505050506040513d601f19601f820116820180604052508101906115aa9190612127565b905060011515811515146115f3576040517f08c379a00000000000000000000000000000000000000000000000000000000081526004016115ea906121a0565b60405180910390fd5b6000600160008a81526020019081526020016000209050338160000160006101000a81548173ffffffffffffffffffffffffffffffffffffffff021916908373ffffffffffffffffffffffffffffffffffffffff1602179055503073ffffffffffffffffffffffffffffffffffffffff1663c5e920a88a8a8a8a8a8a6040518763ffffffff1660e01b8152600401611690969594939291906122b2565b600060405180830381600087803b1580156116aa57600080fd5b505af11580156116be573d6000803e3d6000fd5b50505050887f49dc6543f46a459a35e4ce36bb4994a0eaecc8c3de1aaf466e83c52fd385c45960405160405180910390a2505050505050505050565b50805461170690612248565b6000825580601f106117185750611737565b601f0160209004906000526020600020908101906117369190611829565b5b50565b508054600082556005029060005260206000209081019061175b9190611846565b50565b82805461176a90612248565b90600052602060002090601f01602090048101928261178c57600085556117d3565b82601f106117a557805160ff19168380011785556117d3565b828001600101855582156117d3579182015b828111156117d25782518255916020019190600101906117b7565b5b5090506117e09190611829565b5090565b6040518060a00160405280600073ffffffffffffffffffffffffffffffffffffffff168152602001606081526020016060815260200160608152602001606081525090565b5b8082111561184257600081600090555060010161182a565b5090565b5b808211156118c057600080820160006101000a81549073ffffffffffffffffffffffffffffffffffffffff021916905560018201600061188791906116fa565b60028201600061189791906116fa565b6003820160006118a791906116fa565b6004820160006118b791906116fa565b50600501611847565b5090565b6000604051905090565b600080fd5b600080fd5b6000819050919050565b6118eb816118d8565b81146118f657600080fd5b50565b600081359050611908816118e2565b92915050565b6000819050919050565b6119218161190e565b811461192c57600080fd5b50565b60008135905061193e81611918565b92915050565b6000806040838503121561195b5761195a6118ce565b5b6000611969858286016118f9565b925050602061197a8582860161192f565b9150509250929050565b60008115159050919050565b61199981611984565b82525050565b60006020820190506119b46000830184611990565b92915050565b6000602082840312156119d0576119cf6118ce565b5b60006119de848285016118f9565b91505092915050565b600073ffffffffffffffffffffffffffffffffffffffff82169050919050565b6000611a12826119e7565b9050919050565b611a2281611a07565b8114611a2d57600080fd5b50565b600081359050611a3f81611a19565b92915050565b600080fd5b600080fd5b6000601f19601f8301169050919050565b7f4e487b7100000000000000000000000000000000000000000000000000000000600052604160045260246000fd5b611a9882611a4f565b810181811067ffffffffffffffff82111715611ab757611ab6611a60565b5b80604052505050565b6000611aca6118c4565b9050611ad68282611a8f565b919050565b600067ffffffffffffffff821115611af657611af5611a60565b5b611aff82611a4f565b9050602081019050919050565b82818337600083830152505050565b6000611b2e611b2984611adb565b611ac0565b905082815260208101848484011115611b4a57611b49611a4a565b5b611b55848285611b0c565b509392505050565b600082601f830112611b7257611b71611a45565b5b8135611b82848260208601611b1b565b91505092915050565b60008060008060008060c08789031215611ba857611ba76118ce565b5b6000611bb689828a016118f9565b9650506020611bc789828a01611a30565b955050604087013567ffffffffffffffff811115611be857611be76118d3565b5b611bf489828a01611b5d565b945050606087013567ffffffffffffffff811115611c1557611c146118d3565b5b611c2189828a01611b5d565b935050608087013567ffffffffffffffff811115611c4257611c416118d3565b5b611c4e89828a01611b5d565b92505060a087013567ffffffffffffffff811115611c6f57611c6e6118d3565b5b611c7b89828a01611b5d565b9150509295509295509295565b600081519050919050565b600082825260208201905092915050565b6000819050602082019050919050565b611cbd81611a07565b82525050565b600081519050919050565b600082825260208201905092915050565b60005b83811015611cfd578082015181840152602081019050611ce2565b83811115611d0c576000848401525b50505050565b6000611d1d82611cc3565b611d278185611cce565b9350611d37818560208601611cdf565b611d4081611a4f565b840191505092915050565b600060a083016000830151611d636000860182611cb4565b5060208301518482036020860152611d7b8282611d12565b91505060408301518482036040860152611d958282611d12565b91505060608301518482036060860152611daf8282611d12565b91505060808301518482036080860152611dc98282611d12565b9150508091505092915050565b6000611de28383611d4b565b905092915050565b6000602082019050919050565b6000611e0282611c88565b611e0c8185611c93565b935083602082028501611e1e85611ca4565b8060005b85811015611e5a5784840389528151611e3b8582611dd6565b9450611e4683611dea565b925060208a01995050600181019050611e22565b50829750879550505050505092915050565b60006020820190508181036000830152611e868184611df7565b905092915050565b6000819050919050565b6000611eb3611eae611ea9846119e7565b611e8e565b6119e7565b9050919050565b6000611ec582611e98565b9050919050565b6000611ed782611eba565b9050919050565b611ee781611ecc565b82525050565b6000602082019050611f026000830184611ede565b92915050565b60008060008060808587031215611f2257611f216118ce565b5b6000611f30878288016118f9565b9450506020611f418782880161192f565b935050604085013567ffffffffffffffff811115611f6257611f616118d3565b5b611f6e87828801611b5d565b925050606085013567ffffffffffffffff811115611f8f57611f8e6118d3565b5b611f9b87828801611b5d565b91505092959194509250565b600060a083016000830151611fbf6000860182611cb4565b5060208301518482036020860152611fd78282611d12565b91505060408301518482036040860152611ff18282611d12565b9150506060830151848203606086015261200b8282611d12565b915050608083015184820360808601526120258282611d12565b9150508091505092915050565b6000602082019050818103600083015261204c8184611fa7565b905092915050565b600082825260208201905092915050565b7f43616c6c6572206d757374206265206f776e6572000000000000000000000000600082015250565b600061209b601483612054565b91506120a682612065565b602082019050919050565b600060208201905081810360008301526120ca8161208e565b9050919050565b6120da816118d8565b82525050565b60006020820190506120f560008301846120d1565b92915050565b61210481611984565b811461210f57600080fd5b50565b600081519050612121816120fb565b92915050565b60006020828403121561213d5761213c6118ce565b5b600061214b84828501612112565b91505092915050565b7f43616c6c6572206d75737420626520617574686f72697a656400000000000000600082015250565b600061218a601983612054565b915061219582612154565b602082019050919050565b600060208201905081810360008301526121b98161217d565b9050919050565b7f4e487b7100000000000000000000000000000000000000000000000000000000600052603260045260246000fd5b6121f881611a07565b82525050565b600060208201905061221360008301846121ef565b92915050565b7f4e487b7100000000000000000000000000000000000000000000000000000000600052602260045260246000fd5b6000600282049050600182168061226057607f821691505b60208210810361227357612272612219565b5b50919050565b600061228482611cc3565b61228e8185612054565b935061229e818560208601611cdf565b6122a781611a4f565b840191505092915050565b600060c0820190506122c760008301896120d1565b6122d460208301886121ef565b81810360408301526122e68187612279565b905081810360608301526122fa8186612279565b9050818103608083015261230e8185612279565b905081810360a08301526123228184612279565b905097965050505050505056fea264697066735822122044084a2ac4c6da5a616bc0bdc364f6c0e8dda2ad4295b31e2a97dd1d69ead28164736f6c634300080d0033",
  "immutableReferences": {},
  "source": "// SPDX-License-Identifier: MIT\npragma solidity ^0.8.3;\n\nimport \"./Authorizer.sol\";\n\ncontract Nexus {\n    /* ========== DATA STRUCTURES ========== */\n    struct Wallet {\n        address _address;\n        string name;\n        string description;\n        string provider;\n        string chain;\n    }\n\n    struct Profile {\n        address owner;\n        Wallet[] wallets;\n    }\n\n    /* ========== STATE VARIABLES ========== */\n    Authorizer public authorizer;\n\n    mapping(bytes32 => Profile) private profiles;\n\n    // Permits modifications only by the owner of the specified node.\n    modifier onlyOwner(bytes32 hash) {\n        address owner = profiles[hash].owner;\n        require(owner == msg.sender, \"Caller must be owner\");\n        _;\n    }\n\n    modifier onlyAuthorized(bytes32 hash) {\n        bool isAuthorized = authorizer.requireAuthorization(hash);\n        require(isAuthorized == true, \"Caller must be authorized\");\n        _;\n    }\n\n    /* ========== EVENTS ========== */\n\n    event ProfileCreateEvent(bytes32 indexed hash);\n\n    event ProfileDeleteEvent(bytes32 indexed hash);\n\n    event WalletCreateEvent(bytes32 indexed hash, address _address);\n\n    event WalletUpdateEvent(bytes32 indexed hash, address _address);\n\n    event WalletDeleteEvent(bytes32 indexed hash, address _address);\n\n    /* ========== CONSTRUCTOR ========== */\n\n    constructor(Authorizer _authorizer) {\n        authorizer = _authorizer;\n    }\n\n    /* ========== MUTATIVE FUNCTIONS ========== */\n\n    // PROFILE\n    function createProfile(bytes32 hash) public onlyAuthorized(hash) {\n        Profile storage profile = profiles[hash];\n        profile.owner = msg.sender;\n\n        emit ProfileCreateEvent(hash);\n    }\n\n    function createProfileWithWallet(\n        bytes32 hash,\n        address _address,\n        string memory name,\n        string memory description,\n        string memory provider,\n        string memory chain\n    ) public onlyAuthorized(hash) {\n        Profile storage profile = profiles[hash];\n        profile.owner = msg.sender;\n\n        this.insertWallet(hash, _address, name, description, provider, chain);\n\n        emit ProfileCreateEvent(hash);\n    }\n\n    function deleteProfile(bytes32 hash)\n        public\n        onlyOwner(hash)\n        onlyAuthorized(hash)\n        returns (bool success)\n    {\n        delete profiles[hash];\n\n        emit ProfileDeleteEvent(hash);\n        return true;\n    }\n\n    // WALLET\n    function insertWallet(\n        bytes32 hash,\n        address _address,\n        string memory name,\n        string memory description,\n        string memory provider,\n        string memory chain\n    ) public onlyOwner(hash) onlyAuthorized(hash) {\n        Wallet memory newWallet = Wallet(\n            _address,\n            name,\n            description,\n            provider,\n            chain\n        );\n        profiles[hash].wallets.push(newWallet);\n\n        emit WalletCreateEvent(hash, _address);\n    }\n\n    function getWallets(bytes32 hash)\n        public\n        view\n        onlyAuthorized(hash)\n        returns (Wallet[] memory _wallets)\n    {\n        return profiles[hash].wallets;\n    }\n\n    function updateWallet(\n        bytes32 hash,\n        uint256 index,\n        string memory name,\n        string memory description\n    )\n        public\n        onlyOwner(hash)\n        onlyAuthorized(hash)\n        returns (Wallet memory wallet)\n    {\n        profiles[hash].wallets[index].name = name;\n        profiles[hash].wallets[index].description = description;\n\n        emit WalletUpdateEvent(hash, profiles[hash].wallets[index]._address);\n\n        return profiles[hash].wallets[index];\n    }\n\n    function deleteWallet(bytes32 hash, uint256 index)\n        public\n        onlyOwner(hash)\n        onlyAuthorized(hash)\n        returns (bool success)\n    {\n        address deletedAddress = profiles[hash].wallets[index]._address;\n        delete profiles[hash].wallets[index];\n\n        emit WalletDeleteEvent(hash, deletedAddress);\n        return true;\n    }\n\n    /* ========== INTERNAL FUNCTIONS ========== */\n}\n",
  "sourcePath": "/Users/joshuablew/Work/nexus/contracts/Nexus.sol",
  "compiler": {
    "name": "solc",
    "version": "0.8.13+commit.abaa5c0e.Emscripten.clang"
  },
  "schemaVersion": "3.4.9",
  "updatedAt": "2022-12-23T00:13:25.317Z",
  "devdoc": {
    "kind": "dev",
    "methods": {},
    "version": 1
  },
  "userdoc": {
    "kind": "user",
    "methods": {},
    "version": 1
  }
}