{
  "contractName": "Nexus",
  "address": "0xCf81F51D7C6D1F1983C11F6749c100c862A3482e",
  "abi": [
    {
      "anonymous": false,
      "inputs": [
        {
          "indexed": false,
          "internalType": "bytes32",
          "name": "hash",
          "type": "bytes32"
        }
      ],
      "name": "WalletDelete",
      "type": "event"
    },
    {
      "anonymous": false,
      "inputs": [
        {
          "indexed": false,
          "internalType": "address",
          "name": "_address",
          "type": "address"
        },
        {
          "indexed": false,
          "internalType": "string",
          "name": "name",
          "type": "string"
        },
        {
          "indexed": false,
          "internalType": "string",
          "name": "description",
          "type": "string"
        },
        {
          "indexed": false,
          "internalType": "string",
          "name": "provider",
          "type": "string"
        },
        {
          "indexed": false,
          "internalType": "string",
          "name": "chain",
          "type": "string"
        }
      ],
      "name": "WalletEvent",
      "type": "event"
    },
    {
      "inputs": [
        {
          "internalType": "bytes32",
          "name": "",
          "type": "bytes32"
        }
      ],
      "name": "profiles",
      "outputs": [
        {
          "internalType": "address",
          "name": "owner",
          "type": "address"
        }
      ],
      "stateMutability": "view",
      "type": "function"
    },
    {
      "inputs": [
        {
          "internalType": "bytes32",
          "name": "hash",
          "type": "bytes32"
        },
        {
          "internalType": "address",
          "name": "_address",
          "type": "address"
        },
        {
          "internalType": "string",
          "name": "name",
          "type": "string"
        },
        {
          "internalType": "string",
          "name": "description",
          "type": "string"
        },
        {
          "internalType": "string",
          "name": "provider",
          "type": "string"
        },
        {
          "internalType": "string",
          "name": "chain",
          "type": "string"
        }
      ],
      "name": "createProfile",
      "outputs": [],
      "stateMutability": "nonpayable",
      "type": "function"
    },
    {
      "inputs": [
        {
          "internalType": "bytes32",
          "name": "hash",
          "type": "bytes32"
        }
      ],
      "name": "deleteProfile",
      "outputs": [
        {
          "internalType": "bool",
          "name": "success",
          "type": "bool"
        }
      ],
      "stateMutability": "nonpayable",
      "type": "function"
    },
    {
      "inputs": [
        {
          "internalType": "bytes32",
          "name": "hash",
          "type": "bytes32"
        },
        {
          "internalType": "address",
          "name": "_address",
          "type": "address"
        },
        {
          "internalType": "string",
          "name": "name",
          "type": "string"
        },
        {
          "internalType": "string",
          "name": "description",
          "type": "string"
        },
        {
          "internalType": "string",
          "name": "provider",
          "type": "string"
        },
        {
          "internalType": "string",
          "name": "chain",
          "type": "string"
        }
      ],
      "name": "insertWallet",
      "outputs": [],
      "stateMutability": "nonpayable",
      "type": "function"
    },
    {
      "inputs": [
        {
          "internalType": "bytes32",
          "name": "hash",
          "type": "bytes32"
        }
      ],
      "name": "getWallets",
      "outputs": [
        {
          "components": [
            {
              "internalType": "address",
              "name": "_address",
              "type": "address"
            },
            {
              "internalType": "string",
              "name": "name",
              "type": "string"
            },
            {
              "internalType": "string",
              "name": "description",
              "type": "string"
            },
            {
              "internalType": "string",
              "name": "provider",
              "type": "string"
            },
            {
              "internalType": "string",
              "name": "chain",
              "type": "string"
            }
          ],
          "internalType": "struct Nexus.Wallet[]",
          "name": "_wallets",
          "type": "tuple[]"
        }
      ],
      "stateMutability": "view",
      "type": "function"
    },
    {
      "inputs": [
        {
          "internalType": "bytes32",
          "name": "hash",
          "type": "bytes32"
        },
        {
          "internalType": "uint256",
          "name": "index",
          "type": "uint256"
        },
        {
          "internalType": "string",
          "name": "name",
          "type": "string"
        },
        {
          "internalType": "string",
          "name": "description",
          "type": "string"
        },
        {
          "internalType": "string",
          "name": "provider",
          "type": "string"
        },
        {
          "internalType": "string",
          "name": "chain",
          "type": "string"
        }
      ],
      "name": "updateWallet",
      "outputs": [
        {
          "components": [
            {
              "internalType": "address",
              "name": "_address",
              "type": "address"
            },
            {
              "internalType": "string",
              "name": "name",
              "type": "string"
            },
            {
              "internalType": "string",
              "name": "description",
              "type": "string"
            },
            {
              "internalType": "string",
              "name": "provider",
              "type": "string"
            },
            {
              "internalType": "string",
              "name": "chain",
              "type": "string"
            }
          ],
          "internalType": "struct Nexus.Wallet",
          "name": "wallet",
          "type": "tuple"
        }
      ],
      "stateMutability": "nonpayable",
      "type": "function"
    },
    {
      "inputs": [
        {
          "internalType": "bytes32",
          "name": "hash",
          "type": "bytes32"
        },
        {
          "internalType": "uint256",
          "name": "index",
          "type": "uint256"
        }
      ],
      "name": "deleteWallet",
      "outputs": [
        {
          "internalType": "bool",
          "name": "success",
          "type": "bool"
        }
      ],
      "stateMutability": "nonpayable",
      "type": "function"
    }
  ],
  "bytecode": "0x608060405234801561001057600080fd5b50611879806100206000396000f3fe608060405234801561001057600080fd5b506004361061007d5760003560e01c80637a9eb54d1161005b5780637a9eb54d146100fe578063c5e920a81461012e578063ca6e33621461014a578063cf6a8f1f1461017a5761007d565b806352f33682146100825780636c2ef4bd146100b25780636ffe3f07146100e2575b600080fd5b61009c60048036038101906100979190610f00565b6101aa565b6040516100a99190610f6e565b60405180910390f35b6100cc60048036038101906100c79190610fbf565b6101e8565b6040516100d9919061101a565b60405180910390f35b6100fc60048036038101906100f791906111a7565b6102ca565b005b61011860048036038101906101139190610f00565b6103a1565b604051610125919061101a565b60405180910390f35b610148600480360381019061014391906111a7565b61042f565b005b610164600480360381019061015f9190610f00565b6105b4565b6040516101719190611488565b60405180910390f35b610194600480360381019061018f91906114aa565b6108c6565b6040516101a19190611632565b60405180910390f35b60006020528060005260406000206000915090508060000160009054906101000a900473ffffffffffffffffffffffffffffffffffffffff16905081565b6000806000848152602001908152602001600020600101828154811061021157610210611654565b5b9060005260206000209060050201600080820160006101000a81549073ffffffffffffffffffffffffffffffffffffffff02191690556001820160006102579190610cec565b6002820160006102679190610cec565b6003820160006102779190610cec565b6004820160006102879190610cec565b50507fe5f2045a5cedc779d24b7080e4c3ed5fec0e1d3b6553b7858334011192e32ce0836040516102b89190611692565b60405180910390a16001905092915050565b60008060008881526020019081526020016000209050338160000160006101000a81548173ffffffffffffffffffffffffffffffffffffffff021916908373ffffffffffffffffffffffffffffffffffffffff1602179055503073ffffffffffffffffffffffffffffffffffffffff1663c5e920a88888888888886040518763ffffffff1660e01b8152600401610366969594939291906116f7565b600060405180830381600087803b15801561038057600080fd5b505af1158015610394573d6000803e3d6000fd5b5050505050505050505050565b6000806000838152602001908152602001600020600080820160006101000a81549073ffffffffffffffffffffffffffffffffffffffff02191690556001820160006103ed9190610d2c565b50507fe5f2045a5cedc779d24b7080e4c3ed5fec0e1d3b6553b7858334011192e32ce08260405161041e9190611692565b60405180910390a160019050919050565b60006040518060a001604052808773ffffffffffffffffffffffffffffffffffffffff16815260200186815260200185815260200184815260200183815250905060008088815260200190815260200160002060010181908060018154018082558091505060019003906000526020600020906005020160009091909190915060008201518160000160006101000a81548173ffffffffffffffffffffffffffffffffffffffff021916908373ffffffffffffffffffffffffffffffffffffffff1602179055506020820151816001019080519060200190610512929190610d50565b50604082015181600201908051906020019061052f929190610d50565b50606082015181600301908051906020019061054c929190610d50565b506080820151816004019080519060200190610569929190610d50565b5050507ff6fd91d4ad068ffc9d0d5a9987bd61193acb35aa1ae0d1467d527b10f70dfca486868686866040516105a3959493929190611774565b60405180910390a150505050505050565b6060600080838152602001908152602001600020600101805480602002602001604051908101604052809291908181526020016000905b828210156108bb57838290600052602060002090600502016040518060a00160405290816000820160009054906101000a900473ffffffffffffffffffffffffffffffffffffffff1673ffffffffffffffffffffffffffffffffffffffff1673ffffffffffffffffffffffffffffffffffffffff16815260200160018201805461067490611812565b80601f01602080910402602001604051908101604052809291908181526020018280546106a090611812565b80156106ed5780601f106106c2576101008083540402835291602001916106ed565b820191906000526020600020905b8154815290600101906020018083116106d057829003601f168201915b5050505050815260200160028201805461070690611812565b80601f016020809104026020016040519081016040528092919081815260200182805461073290611812565b801561077f5780601f106107545761010080835404028352916020019161077f565b820191906000526020600020905b81548152906001019060200180831161076257829003601f168201915b5050505050815260200160038201805461079890611812565b80601f01602080910402602001604051908101604052809291908181526020018280546107c490611812565b80156108115780601f106107e657610100808354040283529160200191610811565b820191906000526020600020905b8154815290600101906020018083116107f457829003601f168201915b5050505050815260200160048201805461082a90611812565b80601f016020809104026020016040519081016040528092919081815260200182805461085690611812565b80156108a35780601f10610878576101008083540402835291602001916108a3565b820191906000526020600020905b81548152906001019060200180831161088657829003601f168201915b505050505081525050815260200190600101906105eb565b505050509050919050565b6108ce610dd6565b8460008089815260200190815260200160002060010187815481106108f6576108f5611654565b5b9060005260206000209060050201600101908051906020019061091a929190610d50565b5083600080898152602001908152602001600020600101878154811061094357610942611654565b5b90600052602060002090600502016002019080519060200190610967929190610d50565b508260008089815260200190815260200160002060010187815481106109905761098f611654565b5b906000526020600020906005020160030190805190602001906109b4929190610d50565b508160008089815260200190815260200160002060010187815481106109dd576109dc611654565b5b90600052602060002090600502016004019080519060200190610a01929190610d50565b506000808881526020019081526020016000206001018681548110610a2957610a28611654565b5b90600052602060002090600502016040518060a00160405290816000820160009054906101000a900473ffffffffffffffffffffffffffffffffffffffff1673ffffffffffffffffffffffffffffffffffffffff1673ffffffffffffffffffffffffffffffffffffffff168152602001600182018054610aa890611812565b80601f0160208091040260200160405190810160405280929190818152602001828054610ad490611812565b8015610b215780601f10610af657610100808354040283529160200191610b21565b820191906000526020600020905b815481529060010190602001808311610b0457829003601f168201915b50505050508152602001600282018054610b3a90611812565b80601f0160208091040260200160405190810160405280929190818152602001828054610b6690611812565b8015610bb35780601f10610b8857610100808354040283529160200191610bb3565b820191906000526020600020905b815481529060010190602001808311610b9657829003601f168201915b50505050508152602001600382018054610bcc90611812565b80601f0160208091040260200160405190810160405280929190818152602001828054610bf890611812565b8015610c455780601f10610c1a57610100808354040283529160200191610c45565b820191906000526020600020905b815481529060010190602001808311610c2857829003601f168201915b50505050508152602001600482018054610c5e90611812565b80601f0160208091040260200160405190810160405280929190818152602001828054610c8a90611812565b8015610cd75780601f10610cac57610100808354040283529160200191610cd7565b820191906000526020600020905b815481529060010190602001808311610cba57829003601f168201915b50505050508152505090509695505050505050565b508054610cf890611812565b6000825580601f10610d0a5750610d29565b601f016020900490600052602060002090810190610d289190610e1b565b5b50565b5080546000825560050290600052602060002090810190610d4d9190610e38565b50565b828054610d5c90611812565b90600052602060002090601f016020900481019282610d7e5760008555610dc5565b82601f10610d9757805160ff1916838001178555610dc5565b82800160010185558215610dc5579182015b82811115610dc4578251825591602001919060010190610da9565b5b509050610dd29190610e1b565b5090565b6040518060a00160405280600073ffffffffffffffffffffffffffffffffffffffff168152602001606081526020016060815260200160608152602001606081525090565b5b80821115610e34576000816000905550600101610e1c565b5090565b5b80821115610eb257600080820160006101000a81549073ffffffffffffffffffffffffffffffffffffffff0219169055600182016000610e799190610cec565b600282016000610e899190610cec565b600382016000610e999190610cec565b600482016000610ea99190610cec565b50600501610e39565b5090565b6000604051905090565b600080fd5b600080fd5b6000819050919050565b610edd81610eca565b8114610ee857600080fd5b50565b600081359050610efa81610ed4565b92915050565b600060208284031215610f1657610f15610ec0565b5b6000610f2484828501610eeb565b91505092915050565b600073ffffffffffffffffffffffffffffffffffffffff82169050919050565b6000610f5882610f2d565b9050919050565b610f6881610f4d565b82525050565b6000602082019050610f836000830184610f5f565b92915050565b6000819050919050565b610f9c81610f89565b8114610fa757600080fd5b50565b600081359050610fb981610f93565b92915050565b60008060408385031215610fd657610fd5610ec0565b5b6000610fe485828601610eeb565b9250506020610ff585828601610faa565b9150509250929050565b60008115159050919050565b61101481610fff565b82525050565b600060208201905061102f600083018461100b565b92915050565b61103e81610f4d565b811461104957600080fd5b50565b60008135905061105b81611035565b92915050565b600080fd5b600080fd5b6000601f19601f8301169050919050565b7f4e487b7100000000000000000000000000000000000000000000000000000000600052604160045260246000fd5b6110b48261106b565b810181811067ffffffffffffffff821117156110d3576110d261107c565b5b80604052505050565b60006110e6610eb6565b90506110f282826110ab565b919050565b600067ffffffffffffffff8211156111125761111161107c565b5b61111b8261106b565b9050602081019050919050565b82818337600083830152505050565b600061114a611145846110f7565b6110dc565b90508281526020810184848401111561116657611165611066565b5b611171848285611128565b509392505050565b600082601f83011261118e5761118d611061565b5b813561119e848260208601611137565b91505092915050565b60008060008060008060c087890312156111c4576111c3610ec0565b5b60006111d289828a01610eeb565b96505060206111e389828a0161104c565b955050604087013567ffffffffffffffff81111561120457611203610ec5565b5b61121089828a01611179565b945050606087013567ffffffffffffffff81111561123157611230610ec5565b5b61123d89828a01611179565b935050608087013567ffffffffffffffff81111561125e5761125d610ec5565b5b61126a89828a01611179565b92505060a087013567ffffffffffffffff81111561128b5761128a610ec5565b5b61129789828a01611179565b9150509295509295509295565b600081519050919050565b600082825260208201905092915050565b6000819050602082019050919050565b6112d981610f4d565b82525050565b600081519050919050565b600082825260208201905092915050565b60005b838110156113195780820151818401526020810190506112fe565b83811115611328576000848401525b50505050565b6000611339826112df565b61134381856112ea565b93506113538185602086016112fb565b61135c8161106b565b840191505092915050565b600060a08301600083015161137f60008601826112d0565b5060208301518482036020860152611397828261132e565b915050604083015184820360408601526113b1828261132e565b915050606083015184820360608601526113cb828261132e565b915050608083015184820360808601526113e5828261132e565b9150508091505092915050565b60006113fe8383611367565b905092915050565b6000602082019050919050565b600061141e826112a4565b61142881856112af565b93508360208202850161143a856112c0565b8060005b85811015611476578484038952815161145785826113f2565b945061146283611406565b925060208a0199505060018101905061143e565b50829750879550505050505092915050565b600060208201905081810360008301526114a28184611413565b905092915050565b60008060008060008060c087890312156114c7576114c6610ec0565b5b60006114d589828a01610eeb565b96505060206114e689828a01610faa565b955050604087013567ffffffffffffffff81111561150757611506610ec5565b5b61151389828a01611179565b945050606087013567ffffffffffffffff81111561153457611533610ec5565b5b61154089828a01611179565b935050608087013567ffffffffffffffff81111561156157611560610ec5565b5b61156d89828a01611179565b92505060a087013567ffffffffffffffff81111561158e5761158d610ec5565b5b61159a89828a01611179565b9150509295509295509295565b600060a0830160008301516115bf60008601826112d0565b50602083015184820360208601526115d7828261132e565b915050604083015184820360408601526115f1828261132e565b9150506060830151848203606086015261160b828261132e565b91505060808301518482036080860152611625828261132e565b9150508091505092915050565b6000602082019050818103600083015261164c81846115a7565b905092915050565b7f4e487b7100000000000000000000000000000000000000000000000000000000600052603260045260246000fd5b61168c81610eca565b82525050565b60006020820190506116a76000830184611683565b92915050565b600082825260208201905092915050565b60006116c9826112df565b6116d381856116ad565b93506116e38185602086016112fb565b6116ec8161106b565b840191505092915050565b600060c08201905061170c6000830189611683565b6117196020830188610f5f565b818103604083015261172b81876116be565b9050818103606083015261173f81866116be565b9050818103608083015261175381856116be565b905081810360a083015261176781846116be565b9050979650505050505050565b600060a0820190506117896000830188610f5f565b818103602083015261179b81876116be565b905081810360408301526117af81866116be565b905081810360608301526117c381856116be565b905081810360808301526117d781846116be565b90509695505050505050565b7f4e487b7100000000000000000000000000000000000000000000000000000000600052602260045260246000fd5b6000600282049050600182168061182a57607f821691505b60208210810361183d5761183c6117e3565b5b5091905056fea2646970667358221220b0592459239ff997992cbbd779852efe8b50a9aab18fae4d78ae2f2800aec43164736f6c634300080d0033",
  "immutableReferences": {},
  "source": "// SPDX-License-Identifier: MIT\n// Tells the Solidity compiler to compile only from v0.8.13 to v0.9.0\npragma solidity ^0.8.13;\n\ncontract Nexus {\n    /* ========== DATA STRUCTURES ========== */\n    struct Wallet {\n        address _address;\n        string name; // joshua.blew.metamask.main\n        string description;\n        string provider;\n        string chain;\n    }\n\n    struct Profile {\n        address owner;\n        Wallet[] wallets;\n    }\n\n    /* ========== STATE VARIABLES ========== */\n\n    mapping(bytes32 => Profile) public profiles;\n\n    // Permits modifications only by the owner of the specified node.\n    // modifier onlyOwner(bytes32 hash, address owner) {\n    //     require(owner == msg.sender, \"Caller must be owner\");\n    //     _;\n    // }\n\n    /* ========== EVENTS ========== */\n\n    event WalletEvent(\n        address _address,\n        string name,\n        string description,\n        string provider,\n        string chain\n    );\n\n    event WalletDelete(bytes32 hash);\n\n    /* ========== CONSTRUCTOR ========== */\n\n    /* ========== MUTATIVE FUNCTIONS ========== */\n\n    // PROFILE\n    function createProfile(\n        bytes32 hash,\n        address _address,\n        string memory name,\n        string memory description,\n        string memory provider,\n        string memory chain\n    ) public {\n        Profile storage profile = profiles[hash];\n        profile.owner = msg.sender;\n\n        this.insertWallet(hash, _address, name, description, provider, chain);\n    }\n\n    function deleteProfile(bytes32 hash) public returns (bool success) {\n        delete profiles[hash];\n\n        emit WalletDelete(hash);\n        return true;\n    }\n\n    // WALLET\n    function insertWallet(\n        bytes32 hash,\n        address _address,\n        string memory name,\n        string memory description,\n        string memory provider,\n        string memory chain\n    ) public {\n        Wallet memory newWallet = Wallet(\n            _address,\n            name,\n            description,\n            provider,\n            chain\n        );\n        profiles[hash].wallets.push(newWallet);\n\n        emit WalletEvent(_address, name, description, provider, chain);\n    }\n\n    function getWallets(bytes32 hash)\n        public\n        view\n        returns (Wallet[] memory _wallets)\n    {\n        return profiles[hash].wallets;\n    }\n\n    function updateWallet(\n        bytes32 hash,\n        uint256 index,\n        string memory name,\n        string memory description,\n        string memory provider,\n        string memory chain\n    ) public returns (Wallet memory wallet) {\n        profiles[hash].wallets[index].name = name;\n        profiles[hash].wallets[index].description = description;\n        profiles[hash].wallets[index].provider = provider;\n        profiles[hash].wallets[index].chain = chain;\n\n        return profiles[hash].wallets[index];\n    }\n\n    function deleteWallet(bytes32 hash, uint256 index)\n        public\n        returns (bool success)\n    {\n        delete profiles[hash].wallets[index];\n\n        emit WalletDelete(hash);\n        return true;\n    }\n\n    /* ========== INTERNAL FUNCTIONS ========== */\n}\n",
  "sourcePath": "/Users/joshuablew/Work/nexus/contracts/Nexus.sol",
  "compiler": {
    "name": "solc",
    "version": "0.8.13+commit.abaa5c0e.Emscripten.clang"
  },
  "schemaVersion": "3.4.9",
  "updatedAt": "2022-12-21T01:43:16.371Z",
  "devdoc": {
    "kind": "dev",
    "methods": {},
    "version": 1
  },
  "userdoc": {
    "kind": "user",
    "methods": {},
    "version": 1
  }
}