{
  "contractName": "Nexus",
  "address": "0x43bCd26757CC1E561E5214cD7f2460150798F031",
  "abi": [
    {
      "anonymous": false,
      "inputs": [
        {
          "indexed": false,
          "internalType": "bytes32",
          "name": "hash",
          "type": "bytes32"
        }
      ],
      "name": "WalletDelete",
      "type": "event"
    },
    {
      "anonymous": false,
      "inputs": [
        {
          "indexed": false,
          "internalType": "address",
          "name": "_address",
          "type": "address"
        },
        {
          "indexed": false,
          "internalType": "string",
          "name": "name",
          "type": "string"
        },
        {
          "indexed": false,
          "internalType": "string",
          "name": "description",
          "type": "string"
        },
        {
          "indexed": false,
          "internalType": "string",
          "name": "provider",
          "type": "string"
        },
        {
          "indexed": false,
          "internalType": "string",
          "name": "chain",
          "type": "string"
        }
      ],
      "name": "WalletEvent",
      "type": "event"
    },
    {
      "inputs": [
        {
          "internalType": "bytes32",
          "name": "",
          "type": "bytes32"
        }
      ],
      "name": "profiles",
      "outputs": [
        {
          "internalType": "address",
          "name": "owner",
          "type": "address"
        }
      ],
      "stateMutability": "view",
      "type": "function"
    },
    {
      "inputs": [
        {
          "internalType": "bytes32",
          "name": "hash",
          "type": "bytes32"
        },
        {
          "internalType": "address",
          "name": "_address",
          "type": "address"
        },
        {
          "internalType": "string",
          "name": "name",
          "type": "string"
        },
        {
          "internalType": "string",
          "name": "description",
          "type": "string"
        },
        {
          "internalType": "string",
          "name": "provider",
          "type": "string"
        },
        {
          "internalType": "string",
          "name": "chain",
          "type": "string"
        }
      ],
      "name": "createProfile",
      "outputs": [],
      "stateMutability": "nonpayable",
      "type": "function"
    },
    {
      "inputs": [
        {
          "internalType": "bytes32",
          "name": "hash",
          "type": "bytes32"
        }
      ],
      "name": "deleteProfile",
      "outputs": [
        {
          "internalType": "bool",
          "name": "success",
          "type": "bool"
        }
      ],
      "stateMutability": "nonpayable",
      "type": "function"
    },
    {
      "inputs": [
        {
          "internalType": "bytes32",
          "name": "hash",
          "type": "bytes32"
        },
        {
          "internalType": "address",
          "name": "_address",
          "type": "address"
        },
        {
          "internalType": "string",
          "name": "name",
          "type": "string"
        },
        {
          "internalType": "string",
          "name": "description",
          "type": "string"
        },
        {
          "internalType": "string",
          "name": "provider",
          "type": "string"
        },
        {
          "internalType": "string",
          "name": "chain",
          "type": "string"
        }
      ],
      "name": "insertWallet",
      "outputs": [],
      "stateMutability": "nonpayable",
      "type": "function"
    },
    {
      "inputs": [
        {
          "internalType": "bytes32",
          "name": "hash",
          "type": "bytes32"
        }
      ],
      "name": "getWallets",
      "outputs": [
        {
          "components": [
            {
              "internalType": "address",
              "name": "_address",
              "type": "address"
            },
            {
              "internalType": "string",
              "name": "name",
              "type": "string"
            },
            {
              "internalType": "string",
              "name": "description",
              "type": "string"
            },
            {
              "internalType": "string",
              "name": "provider",
              "type": "string"
            },
            {
              "internalType": "string",
              "name": "chain",
              "type": "string"
            }
          ],
          "internalType": "struct Nexus.Wallet[]",
          "name": "_wallets",
          "type": "tuple[]"
        }
      ],
      "stateMutability": "view",
      "type": "function"
    },
    {
      "inputs": [
        {
          "internalType": "bytes32",
          "name": "hash",
          "type": "bytes32"
        },
        {
          "internalType": "uint256",
          "name": "index",
          "type": "uint256"
        },
        {
          "internalType": "string",
          "name": "name",
          "type": "string"
        },
        {
          "internalType": "string",
          "name": "description",
          "type": "string"
        }
      ],
      "name": "updateWallet",
      "outputs": [
        {
          "components": [
            {
              "internalType": "address",
              "name": "_address",
              "type": "address"
            },
            {
              "internalType": "string",
              "name": "name",
              "type": "string"
            },
            {
              "internalType": "string",
              "name": "description",
              "type": "string"
            },
            {
              "internalType": "string",
              "name": "provider",
              "type": "string"
            },
            {
              "internalType": "string",
              "name": "chain",
              "type": "string"
            }
          ],
          "internalType": "struct Nexus.Wallet",
          "name": "wallet",
          "type": "tuple"
        }
      ],
      "stateMutability": "nonpayable",
      "type": "function"
    },
    {
      "inputs": [
        {
          "internalType": "bytes32",
          "name": "hash",
          "type": "bytes32"
        },
        {
          "internalType": "uint256",
          "name": "index",
          "type": "uint256"
        }
      ],
      "name": "deleteWallet",
      "outputs": [
        {
          "internalType": "bool",
          "name": "success",
          "type": "bool"
        }
      ],
      "stateMutability": "nonpayable",
      "type": "function"
    }
  ],
  "bytecode": "0x608060405234801561001057600080fd5b5061177f806100206000396000f3fe608060405234801561001057600080fd5b506004361061007d5760003560e01c80637a9eb54d1161005b5780637a9eb54d146100fe578063c5e920a81461012e578063ca6e33621461014a578063d9eaa4561461017a5761007d565b806352f33682146100825780636c2ef4bd146100b25780636ffe3f07146100e2575b600080fd5b61009c60048036038101906100979190610e64565b6101aa565b6040516100a99190610ed2565b60405180910390f35b6100cc60048036038101906100c79190610f23565b6101e8565b6040516100d99190610f7e565b60405180910390f35b6100fc60048036038101906100f7919061110b565b6102ca565b005b61011860048036038101906101139190610e64565b6103a1565b6040516101259190610f7e565b60405180910390f35b6101486004803603810190610143919061110b565b61042f565b005b610164600480360381019061015f9190610e64565b6105b4565b60405161017191906113ec565b60405180910390f35b610194600480360381019061018f919061140e565b6108c6565b6040516101a19190611538565b60405180910390f35b60006020528060005260406000206000915090508060000160009054906101000a900473ffffffffffffffffffffffffffffffffffffffff16905081565b600080600084815260200190815260200160002060010182815481106102115761021061155a565b5b9060005260206000209060050201600080820160006101000a81549073ffffffffffffffffffffffffffffffffffffffff02191690556001820160006102579190610c50565b6002820160006102679190610c50565b6003820160006102779190610c50565b6004820160006102879190610c50565b50507fe5f2045a5cedc779d24b7080e4c3ed5fec0e1d3b6553b7858334011192e32ce0836040516102b89190611598565b60405180910390a16001905092915050565b60008060008881526020019081526020016000209050338160000160006101000a81548173ffffffffffffffffffffffffffffffffffffffff021916908373ffffffffffffffffffffffffffffffffffffffff1602179055503073ffffffffffffffffffffffffffffffffffffffff1663c5e920a88888888888886040518763ffffffff1660e01b8152600401610366969594939291906115fd565b600060405180830381600087803b15801561038057600080fd5b505af1158015610394573d6000803e3d6000fd5b5050505050505050505050565b6000806000838152602001908152602001600020600080820160006101000a81549073ffffffffffffffffffffffffffffffffffffffff02191690556001820160006103ed9190610c90565b50507fe5f2045a5cedc779d24b7080e4c3ed5fec0e1d3b6553b7858334011192e32ce08260405161041e9190611598565b60405180910390a160019050919050565b60006040518060a001604052808773ffffffffffffffffffffffffffffffffffffffff16815260200186815260200185815260200184815260200183815250905060008088815260200190815260200160002060010181908060018154018082558091505060019003906000526020600020906005020160009091909190915060008201518160000160006101000a81548173ffffffffffffffffffffffffffffffffffffffff021916908373ffffffffffffffffffffffffffffffffffffffff1602179055506020820151816001019080519060200190610512929190610cb4565b50604082015181600201908051906020019061052f929190610cb4565b50606082015181600301908051906020019061054c929190610cb4565b506080820151816004019080519060200190610569929190610cb4565b5050507ff6fd91d4ad068ffc9d0d5a9987bd61193acb35aa1ae0d1467d527b10f70dfca486868686866040516105a395949392919061167a565b60405180910390a150505050505050565b6060600080838152602001908152602001600020600101805480602002602001604051908101604052809291908181526020016000905b828210156108bb57838290600052602060002090600502016040518060a00160405290816000820160009054906101000a900473ffffffffffffffffffffffffffffffffffffffff1673ffffffffffffffffffffffffffffffffffffffff1673ffffffffffffffffffffffffffffffffffffffff16815260200160018201805461067490611718565b80601f01602080910402602001604051908101604052809291908181526020018280546106a090611718565b80156106ed5780601f106106c2576101008083540402835291602001916106ed565b820191906000526020600020905b8154815290600101906020018083116106d057829003601f168201915b5050505050815260200160028201805461070690611718565b80601f016020809104026020016040519081016040528092919081815260200182805461073290611718565b801561077f5780601f106107545761010080835404028352916020019161077f565b820191906000526020600020905b81548152906001019060200180831161076257829003601f168201915b5050505050815260200160038201805461079890611718565b80601f01602080910402602001604051908101604052809291908181526020018280546107c490611718565b80156108115780601f106107e657610100808354040283529160200191610811565b820191906000526020600020905b8154815290600101906020018083116107f457829003601f168201915b5050505050815260200160048201805461082a90611718565b80601f016020809104026020016040519081016040528092919081815260200182805461085690611718565b80156108a35780601f10610878576101008083540402835291602001916108a3565b820191906000526020600020905b81548152906001019060200180831161088657829003601f168201915b505050505081525050815260200190600101906105eb565b505050509050919050565b6108ce610d3a565b8260008087815260200190815260200160002060010185815481106108f6576108f561155a565b5b9060005260206000209060050201600101908051906020019061091a929190610cb4565b508160008087815260200190815260200160002060010185815481106109435761094261155a565b5b90600052602060002090600502016002019080519060200190610967929190610cb4565b50600080868152602001908152602001600020600101848154811061098f5761098e61155a565b5b90600052602060002090600502016040518060a00160405290816000820160009054906101000a900473ffffffffffffffffffffffffffffffffffffffff1673ffffffffffffffffffffffffffffffffffffffff1673ffffffffffffffffffffffffffffffffffffffff168152602001600182018054610a0e90611718565b80601f0160208091040260200160405190810160405280929190818152602001828054610a3a90611718565b8015610a875780601f10610a5c57610100808354040283529160200191610a87565b820191906000526020600020905b815481529060010190602001808311610a6a57829003601f168201915b50505050508152602001600282018054610aa090611718565b80601f0160208091040260200160405190810160405280929190818152602001828054610acc90611718565b8015610b195780601f10610aee57610100808354040283529160200191610b19565b820191906000526020600020905b815481529060010190602001808311610afc57829003601f168201915b50505050508152602001600382018054610b3290611718565b80601f0160208091040260200160405190810160405280929190818152602001828054610b5e90611718565b8015610bab5780601f10610b8057610100808354040283529160200191610bab565b820191906000526020600020905b815481529060010190602001808311610b8e57829003601f168201915b50505050508152602001600482018054610bc490611718565b80601f0160208091040260200160405190810160405280929190818152602001828054610bf090611718565b8015610c3d5780601f10610c1257610100808354040283529160200191610c3d565b820191906000526020600020905b815481529060010190602001808311610c2057829003601f168201915b5050505050815250509050949350505050565b508054610c5c90611718565b6000825580601f10610c6e5750610c8d565b601f016020900490600052602060002090810190610c8c9190610d7f565b5b50565b5080546000825560050290600052602060002090810190610cb19190610d9c565b50565b828054610cc090611718565b90600052602060002090601f016020900481019282610ce25760008555610d29565b82601f10610cfb57805160ff1916838001178555610d29565b82800160010185558215610d29579182015b82811115610d28578251825591602001919060010190610d0d565b5b509050610d369190610d7f565b5090565b6040518060a00160405280600073ffffffffffffffffffffffffffffffffffffffff168152602001606081526020016060815260200160608152602001606081525090565b5b80821115610d98576000816000905550600101610d80565b5090565b5b80821115610e1657600080820160006101000a81549073ffffffffffffffffffffffffffffffffffffffff0219169055600182016000610ddd9190610c50565b600282016000610ded9190610c50565b600382016000610dfd9190610c50565b600482016000610e0d9190610c50565b50600501610d9d565b5090565b6000604051905090565b600080fd5b600080fd5b6000819050919050565b610e4181610e2e565b8114610e4c57600080fd5b50565b600081359050610e5e81610e38565b92915050565b600060208284031215610e7a57610e79610e24565b5b6000610e8884828501610e4f565b91505092915050565b600073ffffffffffffffffffffffffffffffffffffffff82169050919050565b6000610ebc82610e91565b9050919050565b610ecc81610eb1565b82525050565b6000602082019050610ee76000830184610ec3565b92915050565b6000819050919050565b610f0081610eed565b8114610f0b57600080fd5b50565b600081359050610f1d81610ef7565b92915050565b60008060408385031215610f3a57610f39610e24565b5b6000610f4885828601610e4f565b9250506020610f5985828601610f0e565b9150509250929050565b60008115159050919050565b610f7881610f63565b82525050565b6000602082019050610f936000830184610f6f565b92915050565b610fa281610eb1565b8114610fad57600080fd5b50565b600081359050610fbf81610f99565b92915050565b600080fd5b600080fd5b6000601f19601f8301169050919050565b7f4e487b7100000000000000000000000000000000000000000000000000000000600052604160045260246000fd5b61101882610fcf565b810181811067ffffffffffffffff8211171561103757611036610fe0565b5b80604052505050565b600061104a610e1a565b9050611056828261100f565b919050565b600067ffffffffffffffff82111561107657611075610fe0565b5b61107f82610fcf565b9050602081019050919050565b82818337600083830152505050565b60006110ae6110a98461105b565b611040565b9050828152602081018484840111156110ca576110c9610fca565b5b6110d584828561108c565b509392505050565b600082601f8301126110f2576110f1610fc5565b5b813561110284826020860161109b565b91505092915050565b60008060008060008060c0878903121561112857611127610e24565b5b600061113689828a01610e4f565b965050602061114789828a01610fb0565b955050604087013567ffffffffffffffff81111561116857611167610e29565b5b61117489828a016110dd565b945050606087013567ffffffffffffffff81111561119557611194610e29565b5b6111a189828a016110dd565b935050608087013567ffffffffffffffff8111156111c2576111c1610e29565b5b6111ce89828a016110dd565b92505060a087013567ffffffffffffffff8111156111ef576111ee610e29565b5b6111fb89828a016110dd565b9150509295509295509295565b600081519050919050565b600082825260208201905092915050565b6000819050602082019050919050565b61123d81610eb1565b82525050565b600081519050919050565b600082825260208201905092915050565b60005b8381101561127d578082015181840152602081019050611262565b8381111561128c576000848401525b50505050565b600061129d82611243565b6112a7818561124e565b93506112b781856020860161125f565b6112c081610fcf565b840191505092915050565b600060a0830160008301516112e36000860182611234565b50602083015184820360208601526112fb8282611292565b915050604083015184820360408601526113158282611292565b9150506060830151848203606086015261132f8282611292565b915050608083015184820360808601526113498282611292565b9150508091505092915050565b600061136283836112cb565b905092915050565b6000602082019050919050565b600061138282611208565b61138c8185611213565b93508360208202850161139e85611224565b8060005b858110156113da57848403895281516113bb8582611356565b94506113c68361136a565b925060208a019950506001810190506113a2565b50829750879550505050505092915050565b600060208201905081810360008301526114068184611377565b905092915050565b6000806000806080858703121561142857611427610e24565b5b600061143687828801610e4f565b945050602061144787828801610f0e565b935050604085013567ffffffffffffffff81111561146857611467610e29565b5b611474878288016110dd565b925050606085013567ffffffffffffffff81111561149557611494610e29565b5b6114a1878288016110dd565b91505092959194509250565b600060a0830160008301516114c56000860182611234565b50602083015184820360208601526114dd8282611292565b915050604083015184820360408601526114f78282611292565b915050606083015184820360608601526115118282611292565b9150506080830151848203608086015261152b8282611292565b9150508091505092915050565b6000602082019050818103600083015261155281846114ad565b905092915050565b7f4e487b7100000000000000000000000000000000000000000000000000000000600052603260045260246000fd5b61159281610e2e565b82525050565b60006020820190506115ad6000830184611589565b92915050565b600082825260208201905092915050565b60006115cf82611243565b6115d981856115b3565b93506115e981856020860161125f565b6115f281610fcf565b840191505092915050565b600060c0820190506116126000830189611589565b61161f6020830188610ec3565b818103604083015261163181876115c4565b9050818103606083015261164581866115c4565b9050818103608083015261165981856115c4565b905081810360a083015261166d81846115c4565b9050979650505050505050565b600060a08201905061168f6000830188610ec3565b81810360208301526116a181876115c4565b905081810360408301526116b581866115c4565b905081810360608301526116c981856115c4565b905081810360808301526116dd81846115c4565b90509695505050505050565b7f4e487b7100000000000000000000000000000000000000000000000000000000600052602260045260246000fd5b6000600282049050600182168061173057607f821691505b602082108103611743576117426116e9565b5b5091905056fea264697066735822122070d14e108b8a90b392b8aa199977d89cb1dc45696c84e363238f9fbc52e5a74264736f6c634300080d0033",
  "immutableReferences": {},
  "source": "// SPDX-License-Identifier: MIT\npragma solidity ^0.8.3;\n\ncontract Nexus {\n    /* ========== DATA STRUCTURES ========== */\n    struct Wallet {\n        address _address;\n        string name; // joshua.blew.metamask.main\n        string description;\n        string provider;\n        string chain;\n    }\n\n    struct Profile {\n        address owner;\n        Wallet[] wallets;\n    }\n\n    /* ========== STATE VARIABLES ========== */\n\n    mapping(bytes32 => Profile) public profiles;\n\n    // Permits modifications only by the owner of the specified node.\n    // modifier onlyOwner(bytes32 hash, address owner) {\n    //     require(owner == msg.sender, \"Caller must be owner\");\n    //     _;\n    // }\n\n    /* ========== EVENTS ========== */\n\n    event WalletEvent(\n        address _address,\n        string name,\n        string description,\n        string provider,\n        string chain\n    );\n\n    event WalletDelete(bytes32 hash);\n\n    /* ========== CONSTRUCTOR ========== */\n\n    /* ========== MUTATIVE FUNCTIONS ========== */\n\n    // PROFILE\n    function createProfile(\n        bytes32 hash,\n        address _address,\n        string memory name,\n        string memory description,\n        string memory provider,\n        string memory chain\n    ) public {\n        Profile storage profile = profiles[hash];\n        profile.owner = msg.sender;\n\n        this.insertWallet(hash, _address, name, description, provider, chain);\n    }\n\n    function deleteProfile(bytes32 hash) public returns (bool success) {\n        delete profiles[hash];\n\n        emit WalletDelete(hash);\n        return true;\n    }\n\n    // WALLET\n    function insertWallet(\n        bytes32 hash,\n        address _address,\n        string memory name,\n        string memory description,\n        string memory provider,\n        string memory chain\n    ) public {\n        Wallet memory newWallet = Wallet(\n            _address,\n            name,\n            description,\n            provider,\n            chain\n        );\n        profiles[hash].wallets.push(newWallet);\n\n        emit WalletEvent(_address, name, description, provider, chain);\n    }\n\n    function getWallets(bytes32 hash)\n        public\n        view\n        returns (Wallet[] memory _wallets)\n    {\n        return profiles[hash].wallets;\n    }\n\n    function updateWallet(\n        bytes32 hash,\n        uint256 index,\n        string memory name,\n        string memory description\n    ) public returns (Wallet memory wallet) {\n        profiles[hash].wallets[index].name = name;\n        profiles[hash].wallets[index].description = description;\n\n        return profiles[hash].wallets[index];\n    }\n\n    function deleteWallet(bytes32 hash, uint256 index)\n        public\n        returns (bool success)\n    {\n        delete profiles[hash].wallets[index];\n\n        emit WalletDelete(hash);\n        return true;\n    }\n\n    /* ========== INTERNAL FUNCTIONS ========== */\n}\n",
  "sourcePath": "/Users/joshuablew/Work/nexus/contracts/Nexus.sol",
  "compiler": {
    "name": "solc",
    "version": "0.8.13+commit.abaa5c0e.Emscripten.clang"
  },
  "schemaVersion": "3.4.9",
  "updatedAt": "2022-12-21T22:22:23.263Z",
  "devdoc": {
    "kind": "dev",
    "methods": {},
    "version": 1
  },
  "userdoc": {
    "kind": "user",
    "methods": {},
    "version": 1
  }
}